{"abi":[{"type":"function","name":"balanceOf","inputs":[{"name":"_owner","type":"address","internalType":"address"}],"outputs":[{"name":"","type":"uint256","internalType":"uint256"}],"stateMutability":"view"},{"type":"function","name":"decimals","inputs":[],"outputs":[{"name":"","type":"uint8","internalType":"uint8"}],"stateMutability":"pure"},{"type":"function","name":"name","inputs":[],"outputs":[{"name":"","type":"string","internalType":"string"}],"stateMutability":"pure"},{"type":"function","name":"totalSupply","inputs":[],"outputs":[{"name":"","type":"uint256","internalType":"uint256"}],"stateMutability":"pure"},{"type":"function","name":"transfer","inputs":[{"name":"_to","type":"address","internalType":"address"},{"name":"_amount","type":"uint256","internalType":"uint256"}],"outputs":[],"stateMutability":"nonpayable"}],"bytecode":{"object":"0x6080604052348015600e575f80fd5b506105368061001c5f395ff3fe608060405234801561000f575f80fd5b5060043610610055575f3560e01c806306fdde031461005957806318160ddd14610077578063313ce5671461009557806370a08231146100b3578063a9059cbb146100e3575b5f80fd5b6100616100ff565b60405161006e91906102f7565b60405180910390f35b61007f61013c565b60405161008c919061032f565b60405180910390f35b61009d61014c565b6040516100aa9190610363565b60405180910390f35b6100cd60048036038101906100c891906103da565b610154565b6040516100da919061032f565b60405180910390f35b6100fd60048036038101906100f8919061042f565b610199565b005b60606040518060400160405280600c81526020017f4d616e75616c20546f6b656e0000000000000000000000000000000000000000815250905090565b5f68056bc75e2d63100000905090565b5f6012905090565b5f805f8373ffffffffffffffffffffffffffffffffffffffff1673ffffffffffffffffffffffffffffffffffffffff1681526020019081526020015f20549050919050565b5f6101a383610154565b6101ac33610154565b6101b6919061049a565b9050815f803373ffffffffffffffffffffffffffffffffffffffff1673ffffffffffffffffffffffffffffffffffffffff1681526020019081526020015f205f82825461020391906104cd565b92505081905550815f808573ffffffffffffffffffffffffffffffffffffffff1673ffffffffffffffffffffffffffffffffffffffff1681526020019081526020015f205f828254610255919061049a565b925050819055508061026684610154565b61026f33610154565b610279919061049a565b14610282575f80fd5b505050565b5f81519050919050565b5f82825260208201905092915050565b8281835e5f83830152505050565b5f601f19601f8301169050919050565b5f6102c982610287565b6102d38185610291565b93506102e38185602086016102a1565b6102ec816102af565b840191505092915050565b5f6020820190508181035f83015261030f81846102bf565b905092915050565b5f819050919050565b61032981610317565b82525050565b5f6020820190506103425f830184610320565b92915050565b5f60ff82169050919050565b61035d81610348565b82525050565b5f6020820190506103765f830184610354565b92915050565b5f80fd5b5f73ffffffffffffffffffffffffffffffffffffffff82169050919050565b5f6103a982610380565b9050919050565b6103b98161039f565b81146103c3575f80fd5b50565b5f813590506103d4816103b0565b92915050565b5f602082840312156103ef576103ee61037c565b5b5f6103fc848285016103c6565b91505092915050565b61040e81610317565b8114610418575f80fd5b50565b5f8135905061042981610405565b92915050565b5f80604083850312156104455761044461037c565b5b5f610452858286016103c6565b92505060206104638582860161041b565b9150509250929050565b7f4e487b71000000000000000000000000000000000000000000000000000000005f52601160045260245ffd5b5f6104a482610317565b91506104af83610317565b92508282019050808211156104c7576104c661046d565b5b92915050565b5f6104d782610317565b91506104e283610317565b92508282039050818111156104fa576104f961046d565b5b9291505056fea2646970667358221220f51439833537751b89db9312a31f6515d00c06cfef3772ff494eb88d831b3a0d64736f6c63430008190033","linkReferences":{}},"methodIdentifiers":{"balanceOf(address)":"70a08231","decimals()":"313ce567","name()":"06fdde03","totalSupply()":"18160ddd","transfer(address,uint256)":"a9059cbb"},"id":5}